:020000040800F2
:1000000000200020B9000008490200084F02000843
:1000100000000000000000000000000000000000E0
:10002000000000000000000000000000490200087D
:10003000000000000000000049020008490200081A
:100040004902000849020008490200084902000864
:100050004902000849020008490200084902000854
:100060000000000049020008490200084902000897
:100070004902000849020008000000004902000887
:10008000000000004902000800000000000000001D
:100090004902000800000000490200084902000867
:1000A0004902000849020008490200084902000804
:1000B000490200084902000800F042F800F004F884
:1000C00001F04CFBFEE7000080B582B000AF164B9C
:1000D0007B60164B3B6007E07A68131D7B603B68D2
:1000E000191D396012681A603A68114B9A42F3D3AD
:1000F00004E03B681A1D3A6000221A603A680D4B12
:100100009A42F6D30C4B3B6004E03B681A1D3A6000
:100110001B6898473A68094B9A42F6D3C046C046D6
:10012000BD4602B080BDC046082000080000002087
:10013000000000202C0000200820000808200008F3
:1001400080B500AF3B4B1A683A4B01210A431A6055
:10015000C046384B1B6804221340FAD0354B0122AD
:10016000DA60C046334BDB680C221340042BF9D114
:10017000314B1A68304B02210A431A602E4B1A6821
:100180002D4B01210A431A602A4B9A6B294B80217F
:1001900049050A439A63294B802212011A60C0461E
:1001A000264B5B6810221340FAD1224BDA68214BB0
:1001B00023490A40DA601F4BDA681E4B8821C903C5
:1001C0000A43DA601B4A1B4BD268DA60194A194BA2
:1001D000D268DA60174A174BD268DA60154B1A6892
:1001E000144B18490A401A60124B1A68114B8021AF
:1001F00049040A431A60C0460E4B1A6880239B04C8
:100200001340F9D00B4BDA680A4B03218A43DA60BA
:10021000084BDA68074B03210A43DA60C046054BF6
:10022000DB680C2213400C2BF9D1C046C046BD46FA
:1002300080BDC04600100240002002400070004017
:10024000FFFF02FFFFFFFFFE80B500AFFEE780B5B6
:1002500000AFFEE780B582B000AF786004E0074BE6
:100260001B685A1C054B1A607B685A1E7A60002B6B
:10027000F5D1C046C046BD4602B080BD000000209A
:1002800080B586B000AF786039603B68002B01D143
:10029000002326E000237B6100233B611F23FB60DA
:1002A0001BE03B695A007968FB68D9400B000121CB
:1002B0000B4013433B613A693B689A420AD33A695F
:1002C0003B68D31A3B610122FB689A4013007A69AC
:1002D00013437B61FB68013BFB60FB68002BE0DAAA
:1002E0007B691800BD4606B080BD80B582B000AF06
:1002F000786039603A687B6811001800FFF7C0FF2A
:1003000002003B6853437A68D31A1800BD4602B016
:1003100080BD80B584B000AF786039607B68DB0F4A
:10032000DBB21A003B68DB0FDBB25340FB607B683B
:10033000DA179B1853401A003B68D9175B184B40DB
:1003400019001000FFF79CFF0300BB60FB68002B47
:1003500002D0BB685B4200E0BB681800BD4604B039
:1003600080BD80B582B000AF786039603A687B6844
:1003700011001800FFF7CDFF02003B6853437A6875
:10038000D31A1800BD4602B080BD80B584B000AF5E
:1003900078600023FB608023DB05BB6002E0BB6864
:1003A0009B08BB60BA687B689A42F8D817E0FA6885
:1003B000BB68D3187A689A420BD3FA68BB68D31823
:1003C0007A68D31A7B60FB685B08BA68D318FB6055
:1003D00002E0FB685B08FB60BB689B08BB60BB6816
:1003E000002BE4D1FB681800BD4604B080BD80B589
:1003F00086B000AF786039603B68DA179B185340CD
:100400003B617B68DA179B185340FB603B69002B0C
:1004100004D1FB68002B01D1002337E03A69FB6867
:100420009A4210DBFA6813005B009B189B019B1A31
:100430009A00D31A1A003B6919001000FFF720FF39
:1004400003007B6113E03A6913005B009B189B017A
:100450009B1A9A00D31A1A00FB6819001000FFF7C4
:100460000FFF03001A00E1239B009B1A7B613B688E
:10047000002B04DA7B69E122D200D31A7B617B680E
:10048000002B02DA7B695B427B617B691800BD4609
:1004900006B080BD80B500AF204BDA6A1F4B01214A
:1004A0000A43DA621D4B5A6B1C4B8021C9010A4377
:1004B0005A63A023DB051B68194A1A40A023DB05F9
:1004C000802109030A431A60A023DB055B6AF0223E
:1004D00093431A00A023DB0540210A435A62A0235C
:1004E000DB051B680F4A1A40A023DB058021890326
:1004F0000A431A60A023DB055B6A0B4A1A40A0235B
:10050000DB058021C9000A435A62084B084ADA60B9
:10051000064B09221A60C046BD4680BD001002404D
:10052000FFFFF3FFFFFFCFFFFFF0FFFF00380140A9
:10053000050D000080B582B000AF0200FB1D1A70EF
:10054000C046064BDB6980221340FAD0034BFA1DEC
:1005500012789A62C046BD4602B080BD00380140A4
:1005600080B582B000AF786006E07B685A1C7A6084
:100570001B781800FFF7DEFF7B681B78002BF4D197
:10058000C046C046BD4602B080BD80B588B000AF51
:1005900078600023FB617B68002B1FD13020FFF7C0
:1005A000C9FF2CE07B680A211800FFF769FE0300F1
:1005B000BB617B68DAB2BB69DBB2191C8900CB185E
:1005C000DB18DBB2D31ADAB2FB69591CF96130329D
:1005D000D1B20C22BA18D154BB697B607B68002B66
:1005E000E0D107E00C23FA18FB69D3181B78180038
:1005F000FFF7A0FFFB695A1EFA61002BF2D1BD463E
:1006000008B080BD80B582B000AF78607B68002BF9
:1006100005DA2D20FFF78EFF7B685B427B607B68ED
:100620001800FFF7B2FFC046BD4602B080BDB0B5AE
:1006300088B000AF0200FB1D1A700C243B19134A4E
:1006400023CA23C31168196012791A713020FFF789
:1006500071FF7820FFF76EFFFB1D1B781B09DBB2D3
:100660001A000F2313403A19D35C1800FFF762FFFA
:10067000FB1D1B780F2213403A19D35C1800FFF7BB
:1006800059FFC046BD4608B0B0BDC0460C1D0008AD
:1006900080B584B000AF78607B68002B05DA2D2030
:1006A000FFF748FF7B685B427B607B680A2118008C
:1006B000FFF7E6FD0300FB607968FA6813009B0012
:1006C0009B185B00CB1ABB60FB681800FFF75DFF4F
:1006D0002E20FFF72FFFBB68DBB23033DBB21800F0
:1006E000FFF728FFC046BD4604B080BD80B500AF0F
:1006F000204BDA6A1F4B01210A43DA621D4B9A6BC9
:100700001C4B802189020A439A63A023DB051B68E6
:10071000302293431A00A023DB0520210A431A60EC
:10072000A023DB051B6A144A1A40A023DB058021A5
:10073000C9000A431A62A023DB051B68C022934349
:100740001A00A023DB0580210A431A60A023DB05E1
:100750001B6A0A4A1A40A023DB058021C9010A430B
:100760001A62074B074ADA60054B0D221A60C04631
:10077000BD4680BD00100240FFF0FFFFFF0FFFFFEE
:1007800000440040050D000080B582B000AF0200BB
:10079000FB1D1A70C046064BDB6980221340FAD05D
:1007A000034BFA1D12789A62C046BD4602B080BD66
:1007B0000044004080B582B000AF786006E07B68FE
:1007C0005A1C7A601B781800FFF7DEFF7B681B78E5
:1007D000002BF4D1C046C046BD4602B080BD80B5F6
:1007E00088B000AF78600023FB617B68002B1FD1CD
:1007F0003020FFF7C9FF2CE07B680A211800FFF7C3
:100800003FFD0300BB617B68DAB2BB69DBB2191C38
:100810008900CB18DB18DBB2D31ADAB2FB69591C9A
:10082000F9613032D1B20C22BA18D154BB697B6065
:100830007B68002BE0D107E00C23FA18FB69D31882
:100840001B781800FFF7A0FFFB695A1EFA61002B06
:10085000F2D1BD4608B080BD80B582B000AF7860EF
:100860007B68002B05DA2D20FFF78EFF7B685B424B
:100870007B607B681800FFF7B2FFC046BD4602B040
:1008800080BD80B584B000AF78607B68002B05DA4E
:100890002D20FFF779FF7B685B427B607B680A2134
:1008A0001800FFF7EDFC0300FB607968FA6813009D
:1008B0009B009B185B00CB1ABB60FB681800FFF71E
:1008C0008EFF2E20FFF760FFBB68DBB23033DBB258
:1008D0001800FFF759FFC046BD4604B080BD80B583
:1008E00000AF054BDB69202213405A1E9341DBB257
:1008F0001800BD4680BDC0460044004080B500AF32
:10090000024B5B6ADBB21800BD4680BD004400406C
:1009100080B500AF1E4BDA6A1D4B02210A43DA6232
:100920001B4B9A6B1A4B802189030A439A63194B1C
:100930001B68194A1A40174BA02109020A431A6082
:10094000144B5A68134BC0210A435A60114B9A68E2
:10095000104BF02109020A439A600E4BDB680E4AE5
:100960001A400C4BA021C9010A43DA60094B1B6AEB
:100970001B021A0A074B882149050A431A62074BD2
:10098000074A1A61054B01221A60C046BD4680BD68
:100990000010024000040050FF0FFFFF0054004011
:1009A000130F207080B588B000AFB9607A600F2156
:1009B0007B18021C1A707B681A047B181B785B007A
:1009C00013432F4A1A432F4B5A600023FB613AE02E
:1009D0002D4BBB61C0462B4B9B690222134005D1B6
:1009E000BB69013BBB61BB69002BF4D1BB69002B28
:1009F00004D0244B9B69102213401BD0214BDA6991
:100A0000204B10210A43DA611F4BBB61C0461D4BCE
:100A10009B692022134005D1BB69013BBB61BB69C7
:100A2000002BF4D1174BDA69164B20210A43DA6107
:100A3000012321E0FB69BA68D3181A78114B9A6236
:100A4000FB690133FB61FA697B689A42C0DB0E4B9C
:100A50007B61C0460B4B9B692022134005D17B690B
:100A6000013B7B617B69002BF4D1064BDA69054BB6
:100A700020210A43DA6100231800BD4608B080BD7A
:100A80000020000200540040A086010080B588B01C
:100A900000AFB9607A600F217B18021C1A707B6866
:100AA0001A047B181B785B001343204A1A43204B1F
:100AB0005A600023FB611CE01E4BBB61C0461C4B0F
:100AC0009B690422134005D1BB69013BBB61BB6933
:100AD000002BF4D1BB69002B01D1012322E0144B80
:100AE000596AFB69BA68D318CAB21A70FB69013334
:100AF000FB61FA697B689A42DEDB0E4B7B61C04684
:100B00000B4B9B692022134005D17B69013B7B6124
:100B10007B69002BF4D1064BDA69054B20210A438F
:100B2000DA6100231800BD4608B080BD0024000231
:100B300000540040A086010090B585B000AF0400CD
:100B400008001100FB1D221C1A70BB1D021C1A702C
:100B50007B1D0A1C1A700C217B18BA1D12781A70A2
:100B60007B187A1D12785A707918FB1D1B780222A7
:100B70001800FFF717FF03001800BD4605B090BD31
:100B800090B585B000AFBA607B600F243B19021CA2
:100B90001A700E203B180A1C1A7039183B191B7862
:100BA00001221800FFF7FEFE031E01D0012308E01A
:100BB0007A68B9680F23FB181B781800FFF766FFE7
:100BC00003001800BD4605B090BD80B582B000AFEF
:100BD0001A4B1800FFF7C4FC00237B60FB1C0822A3
:100BE0001A7018E0BA1CFB1C187801230021FFF7CB
:100BF000C7FF031E0AD1FB1C1B781800FFF717FD67
:100C00002020FFF797FC7B6801337B60FB1C1A7880
:100C1000FB1C01321A70FB1C1B78772BE2D97B6816
:100C2000002B03D1064B1800FFF79AFC054B180068
:100C3000FFF796FCC046BD4602B080BD201D0008EF
:100C40002C1D0008401D000880B582B000AFFB1DC0
:100C500000221A702F4B1800FFF7FCFAFA1D01232F
:100C600075216820FFF78CFF031E04D02A4B180063
:100C7000FFF776FC4BE0294B1800FFF771FCFB1DDA
:100C80001B781800FFF7D3FCFB1D1B78682B04D1E1
:100C9000234B1800FFF764FC03E0224B1800FFF71A
:100CA0005FFC00226B216820FFF746FF1E4B1800F7
:100CB000FFF7D0FA072219216820FFF73DFF032232
:100CC0001A216820FFF738FF00221B216820FFF758
:100CD00033FF00221C216820FFF72EFF00226A212B
:100CE0006820FFF729FF114B1800FFF7B3FA022223
:100CF00037216820FFF720FF0B4B1800FFF7AAFAF7
:100D00000B4B01221A600B4B1800FFF729FCBD4664
:100D100002B080BDA0860100441D0008701D0008BF
:100D2000841D00088C1D0008102700008813000097
:100D3000040000209C1D000890B587B000AFF8604B
:100D4000B9607A6010243A1906233B216820FFF726
:100D500017FF21007B181B781B027A1852781A4360
:100D6000FB681A607B189B781B027A18D2781A43AA
:100D7000BB681A600A00BB181B791B02BA185279AB
:100D80001A437B681A60FB681A6880231B029A4228
:100D900005DBFB681B68104A9A18FB681A60BB6881
:100DA0001A6880231B029A4205DBBB681B680A4A4B
:100DB0009A18BB681A607B681A6880231B029A42E3
:100DC00005DB7B681B68044A9A187B681A60C0467A
:100DD000BD4607B090BDC0460000FFFF90B587B08C
:100DE00000AFF860B9607A6010243A1906234321F5
:100DF0006820FFF7C5FE21007B181B781B027A18BC
:100E000052781A43FB681A607B189B781B027A1889
:100E1000D2781A43BB681A600A00BB181B791B0200
:100E2000BA1852791A437B681A60FB681A688023E3
:100E30001B029A4205DBFB681B68104A9A18FB6884
:100E40001A60BB681A6880231B029A4205DBBB68E4
:100E50001B680A4A9A18BB681A607B681A68802364
:100E60001B029A4205DB7B681B68044A9A187B6860
:100E70001A60C046BD4607B090BDC0460000FFFFE7
:100E800080B582B000AF3A1D03230A211E20FFF770
:100E900077FE031E34D1394B1800FFF761FB3B1D71
:100EA0001B781800FFF746FB3B1D5B781800FFF727
:100EB00041FB3B1D9B781800FFF73CFB304B1800B3
:100EC000FFF74EFB702200211E20FFF735FE202287
:100ED00001211E20FFF730FE002202211E20FFF715
:100EE0002BFE284B1800FFF7B5F9274B01221A609B
:100EF000264B1E221A60264B1800FFF731FB39E003
:100F0000FB1C00221A70FA1C01230D210D20FFF793
:100F100037FE031E2AD11F4B1800FFF721FBFB1CD5
:100F20001B781800FFF783FB154B1800FFF718FB21
:100F300001220B210D20FFF7FFFD0D2209210D20BD
:100F4000FFF7FAFD40220A210D20FFF7F5FD0D4BBA
:100F50001800FFF77FF90C4B02221A600B4B0D2291
:100F60001A600D4B1800FFF7FBFA03E00B4B18005B
:100F7000FFF7F6FABD4602B080BDC046C41D0008AA
:100F8000401D000810270000080000200C00002071
:100F9000D41D0008EC1D0008001E0008181E0008E3
:100FA00090B587B000AFF860B9607A60384B1B68C5
:100FB000012B21D110243A19062303211E20FFF70B
:100FC000DFFD21007B181B781B027A1852781A4328
:100FD000FB681A607B189B781B027A18D2781A4338
:100FE0007B681A600A00BB181B791B02BA18527979
:100FF0001A43BB681A6022E010243A190623002124
:101000000D20FFF7BDFD21007B181B781A007B180F
:101010005B781B021A43FB681A607B189B781A00E6
:101020007B18DB781B021A43BB681A607B181B799C
:101030001A007B185B791B021A437B681A60FB68F5
:101040001A6880231B029A4205DBFB681B68114A61
:101050009A18FB681A60BB681A6880231B029A42C0
:1010600005DBBB681B680B4A9A18BB681A607B6873
:101070001A6880231B029A4205DB7B681B68054ABD
:101080009A187B681A60C046BD4607B090BDC0463E
:10109000080000200000FFFF90B587B000AF1721C7
:1010A0007B1800221A707A180123D0217720FFF7CD
:1010B00067FD031E04D0574B1800FFF751FAA6E056
:1010C000554B1800FFF74CFA17243B191B781800F2
:1010D000FFF7ADFA3B191B78552B04D14F4B180085
:1010E000FFF73EFA03E04E4B1800FFF739FA3A00DB
:1010F0001623AA217720FFF743FD031E04D0494B96
:101100001800FFF72DFA82E03B001B781B021AB291
:101110003B005B781BB213431AB2434B1A803B006F
:101120009B781B021AB23B00DB781BB213431AB246
:101130003E4B1A803B001B791B021AB23B005B79C5
:101140001BB213431AB23A4B1A803B009B791B0225
:101150001AB23B00DB791BB213431BB29AB2354B78
:101160001A803B001B7A1B021AB23B005B7A1BB24F
:1011700013431BB29AB2304B1A803B009B7A1B027E
:101180001AB23B00DB7A1BB213431BB29AB22B4B51
:101190001A803B001B7B1B021AB23B005B7B1BB21D
:1011A00013431AB2264B1A803B009B7B1B021AB2D8
:1011B0003B00DB7B1BB213431AB2224B1A803B006D
:1011C0001B7C1B021AB23B005B7C1BB213431AB29E
:1011D0001D4B1A803B009B7C1B021AB23B00DB7C40
:1011E0001BB213431AB2194B1A803B001B7D1B0222
:1011F0001AB23B005B7D1BB213431AB2144B1A8028
:10120000144B01221A60144B1800FFF7A9F9BD46D0
:1012100007B090BD481E0008641E0008841D000829
:101220008C1D0008781E0008140000201600002005
:10123000180000201A0000201C0000201E000020C2
:101240002000002022000020240000202600002092
:101250002800002010000020941E000880B582B0F5
:1012600000AF2E22F4217720FFF766FC094B18000F
:10127000FEF7F0FF3A1D0223F6217720FFF780FCEE
:101280003B1D1B781B023A1D527813431800BD46C4
:1012900002B080BD1027000080B582B000AF3422BC
:1012A000F4217720FFF748FC0C4B1800FEF7D2FF23
:1012B0003A1D0323F6217720FFF762FC3B1D1B78C4
:1012C0001A043B1D5B781B0213433A1D92781343AB
:1012D0001B121800BD4602B080BDC046102700009A
:1012E00090B58FB000AF78603960FFF7B7FF0300AB
:1012F0003B63FFF7D1FF0300FB62804B1B881A00A2
:101300003B6B9B1A7E4A12885343802212021100C3
:101310001800FEF7FEFF0300BB627A4B00229B5EC3
:10132000DA02794B00215B5E1900BB6ACB18190009
:101330001000FEF7EEFF03007B62BA6A7B6AD318E7
:101340003B623B6A083310211800FEF7E2FF0200FF
:101350007B681A603B6A6D4A94466344FB616C4B40
:1013600000229B5E1C00FB695B438022520111003E
:101370001800FEF7CEFF0300634380221201110024
:101380001800FEF7C6FF0300BB62624B00229B5EA3
:101390001A00FB6953438022120111001800FEF766
:1013A000B8FF03007B62BA6A7B6AD318BB615A4BF1
:1013B00000229B5E9A00BB69D318023304211800F7
:1013C000FEF7A7FF03007B61544B00229B5E1A00CF
:1013D000FB6953438022920111001800FEF799FF28
:1013E0000300BB624E4B00229B5E1C00FB695B430B
:1013F0008022520111001800FEF78BFF03006343A7
:101400008022520211001800FEF783FF03007B6266
:10141000BA6A7B6AD318023304211800FEF779FFF9
:101420000300BB613F4B1B881A00BB698021090286
:101430008C46634453438022120211001800FEF7C9
:101440001FFF03003B61FA6A7B69D31A364A534394
:10145000FB60FB68002B09DBFB685B003A6911004D
:101460001800FEF70DFF03007B6308E03A69FB6894
:1014700011001800FEF704FF03005B007B6380236C
:101480005A007B6B11001800FEF743FF0300BB629C
:10149000BB6A5B43BB62BB6A244A5343802252024D
:1014A00011001800FEF735FF0300BB627A6B1300D2
:1014B0005B019B18DB009B1A9B009B1ADA00D31A76
:1014C0005B428022520211001800FEF722FF030047
:1014D0007B62BA6A7B6AD318154A9446634410212A
:1014E0001800FEF716FF02007B6B9B187B633B68BE
:1014F0007A6B1A60C046BD460FB090BD1E0000203A
:101500001C000020260000202800002060F0FFFFC3
:1015100022000020160000201400002018000020E7
:10152000200000201A00002050C30000DE0B000045
:10153000CF0E000080B500AF0D4BDA6A0C4B0121D5
:101540000A43DA62A023DB051A68A023DB050949F8
:101550000A401A60A023DB05DB68064A1A40A02374
:10156000DB058021C9000A43DA60C046BD4680BD64
:1015700000100240FFF3FFFF80B500AFA023DB05A2
:101580001B69202213405A425341DBB21800BD466A
:1015900080BD90B58BB000AF02003960FB1D1A70A2
:1015A0003B681A0A23203B181A7022243B193A6818
:1015B0001A70FB1D1B789A1DFF323B181B78D2183E
:1015C0003B191B78D318FB61FB695B42BB610C21A3
:1015D0007B187E221A707B18FF225A707B18062215
:1015E0009A707B18FA1D1278DA707B1800221A7133
:1015F0007B183A1812785A717B183A1912789A7136
:10160000BB691B0ADAB27B18DA71BB69DAB27B18E4
:101610001A727B18EF225A7200237B620AE00C23B5
:10162000FA187B6AD3181B781800FEF783FF7B6AD1
:1016300001337B627B6A092BF1DDC046044BDB6919
:1016400040221340FAD0C046C046BD460BB090BD04
:101650000038014080B582B000AF0200FB1D1A7057
:10166000FB1D1B781E2B02D9FB1D1E221A70FB1DB1
:101670001B7819000620FFF78CFFC046BD4602B05C
:1016800080BD80B582B000AF78607B681900032010
:10169000FFF77FFFC046BD4602B080BD80B500AFFA
:1016A000A023DB051B69012213405A425341DBB2E0
:1016B0001800BD4680BD80B582B000AF00237B60BE
:1016C00007E0C8235B011800FEF7C4FD7B68013307
:1016D0007B60FFF7E3FF031E09D17B68084A934252
:1016E000EFD904E0FA23DB011800FEF7B3FDFFF7A2
:1016F000D5FF031EF6D1C046C046BD4602B080BD30
:10170000973A000080B500AF114BDA6A104B012107
:101710000A43DA62A023DB051A68A023DB05032154
:101720008A431A60A023DB05DA68A023DB050321C6
:101730008A43DA60074B1800FEF78CFD1E20FFF786
:1017400089FF054B1800FEF785FDC046BD4680BDEC
:1017500000100240404B4C0040420F0080B594B056
:1017600000AFDC4BDA6ADB4B01210A43DA62A023CB
:10177000DB051B68D84A1A40A023DB0580214902FB
:101780000A431A600023FB640FE0A023DB055A69BB
:10179000A023DB05802149004A405A61CF4B180045
:1017A000FEF758FDFB6C0133FB64FB6C052BECDD95
:1017B000FEF770FEFEF79AFFFFF7A4FFC84B180074
:1017C000FEF7CEFEC74B1800FEF7F4FFFFF7B2FEA0
:1017D000FFF79EF8C44B1800FEF73CFDFFF734FA04
:1017E000FFF74EFBFFF758FCC04B1B68002B04D1E2
:1017F000BF4B1800FEF7B4FEFEE7BE4B1800FEF725
:10180000AFFEBD4BBD4A1A60BD4B00221A60BD4BF6
:1018100005221A60BA4B1B68BB6400237B6400235B
:101820003B640023FB630023BB63B74B1800FEF748
:1018300097FEB34B1B68BB62BA6CBB6AD31A1B0220
:101840001B0A7B62BB6ABB64FA23DA017B6A110064
:101850001800FEF715FD03007B637B6B002B01D1A5
:1018600001237B631423FA181823F9181C23FB188F
:101870001800FFF761FAFB697A6911001800FEF79A
:10188000B6FD03003B63BB695B427A691100180037
:10189000FEF7ADFD0300FB623B6B002B05DA3B6BF3
:1018A000E1221201944663443B63FB6A002B05DA94
:1018B000FB6AE122120194466344FB620823FA1892
:1018C0000C23F9181023FB181800FFF787FABB68E0
:1018D0007A6B53438D4A11001800FEF71AFD02007F
:1018E0007B6C9B187B6405E07B6CE12212019446C3
:1018F00063447B647B6C002BF6DB04E07B6C844AE6
:10190000944663447B647A6CE1231B019A42F5DAC6
:10191000FB6B0133FB63FB6B092B30DD3B6C7D4ABA
:10192000934202DC3B6C632B05DC0320FFF7A9FE2E
:10193000FFF7C1FE1BE03B6C642B0ADD3A6CE12330
:10194000DB009A4205DA0120FFF79BFEFFF7B3FEAA
:101950000DE03A6CE123DB009A4208DD3B6C6E4AF5
:10196000934204DC0220FFF78CFEFFF7A4FE002365
:101970003B640023FB63624B1B68BB6420E0BB68D5
:101980007A6B5343614A11001800FEF7C2FC020053
:101990003B6C9B183B6405E03B6CE12212019446D2
:1019A00063443B643B6C002BF6DB04E03B6C584A21
:1019B000944663443B643A6CE1231B019A42F5DA96
:1019C000FFF7DAFD03003B623B6A002B04D0BB6BE0
:1019D000002B01D100237B643B6ABB6300237B6047
:1019E00000233B604D4B1B68002B05D03A003B1D8C
:1019F00011001800FFF774FC494B1800FEF7B0FD0A
:101A0000484B1800FEF7ACFD3B6B1800FEF740FE9C
:101A1000454B1800FEF7A4FDFB6A1800FEF738FEE0
:101A2000424B1800FEF79CFD7B6C1800FEF730FE61
:101A30003F4B1800FEF794FD3E4B1800FEF790FD5B
:101A4000FB691800FEF7DEFD3B4B1800FEF788FD32
:101A5000BB691800FEF7D6FD384B1800FEF780FD75
:101A60007B691800FEF7CEFD354B1800FEF778FDB8
:101A70003B691800FEF7C6FD324B1800FEF770FDFB
:101A8000FB681800FEF7BEFD2F4B1800FEF768FD3F
:101A9000BB681800FEF7B6FD254B1800FEF760FD89
:101AA0001E4B1B68002B57D0284B1800FEF758FD23
:101AB0007B681800FEF7ECFD254B1800FEF750FD83
:101AC0003B681800FEF761FD224B1800FEF748FD49
:101AD00046E0C04600100240FFFFFCFF400D03003F
:101AE000A81E0008B81E000850C300000400002013
:101AF000C41E0008E01E000814E000E0FFFFFF0025
:101B000018E000E010E000E0241F00082C33000083
:101B1000F0F1FFFFAC0D0000AB0D00001000002045
:101B2000301F0008381F0008401F0008481F000829
:101B3000501F00085C1F0008601F0008681F000895
:101B4000701F0008781F0008801F0008881F000809
:101B5000901F0008981F0008554B1800FEF700FD65
:101B6000544B1800FEF7FCFC534B1800FEF7F8FC32
:101B70003B6C1800FEF78CFD3B6C504A934202DC34
:101B80003B6C632B04DC4E4B1800FEF7E9FC19E0BC
:101B90003B6C642B09DD3A6CE123DB009A4204DAEA
:101BA000484B1800FEF7DCFC0CE03A6CE123DB004C
:101BB0009A4207DD3B6C444A934203DC434B1800D6
:101BC000FEF7CEFC3B4B1800FEF7CAFC404B18005A
:101BD000FEF7F0FD3F4B1800FEF7ECFD3B6B1800E5
:101BE000FEF74FFE3C4B1800FEF7E4FDFB6A1800C1
:101BF000FEF747FE394B1800FEF7DCFD7B6C180042
:101C0000FEF73FFE364B1800FEF7D4FD354B1800AB
:101C1000FEF7D0FDFB691800FEF71EFE324B1800E0
:101C2000FEF7C8FDBB691800FEF716FE2F4B180023
:101C3000FEF7C0FD7B691800FEF70EFE2C4B180066
:101C4000FEF7B8FD3B691800FEF706FE294B1800A9
:101C5000FEF7B0FDFB681800FEF7FEFD264B1800EE
:101C6000FEF7A8FDBB681800FEF7F6FD1C4B180038
:101C7000FEF7A0FD214B1B68002B14D0204B180051
:101C8000FEF798FD7B681800FEF7FBFD1D4B180062
:101C9000FEF790FD3B681800FEF7A1FD1A4B1800F7
:101CA000FEF788FDC5E5024B1800FEF783FDC0E591
:101CB000A41F0008401D0008C41F0008AC0D000050
:101CC000CC1F0008E01F0008AB0D0000F41F000847
:101CD000301F0008381F0008401F0008481F000878
:101CE000501F00085C1F0008601F0008681F0008E4
:101CF000701F0008781F0008801F000810000020D7
:101D0000881F0008901F0008981F000830313233E8
:101D100034353637383941424344454600000000E7
:101D2000493243207363616E3A2000006E6F206475
:101D300065766963657320666F756E6421000000C7
:101D40000D0A00004D5055363035303A20493243A7
:101D50002072656164204641494C454420284E412B
:101D6000434B2F74696D656F7574290D0A0000006F
:101D70004D5055363035302057484F5F414D5F4903
:101D8000203D2000204F4B0D0A00000020554E45FD
:101D900058504543544544210D0A00004D505536D6
:101DA00030353020696E697420646F6E652028625A
:101DB000797061737320656E61626C6564290D0AC8
:101DC00000000000484D43353838334C204944204A
:101DD0003D200000484D43353838334C20696E694A
:101DE0007420646F6E650D0A00000000514D43358C
:101DF0003838334C2063686970204944203D200006
:101E0000514D43353838334C20696E697420646F06
:101E10006E650D0A000000004D61676E65746F6DA0
:101E2000657465723A206E6F7420666F756E6420FB
:101E300028484D432F514D4320626F7468206661DE
:101E4000696C6564290D0A00424D503138303A20E2
:101E50004932432072656164204641494C45440D36
:101E60000A000000424D503138302063686970200C
:101E70004944203D20000000424D503138303A2086
:101E800063616C69622072656164204641494C451A
:101E9000440D0A00424D5031383020696E6974207B
:101EA000646F6E650D0A0000416E676C65205265B7
:101EB000616465720D0A000048433035204F4B0DB8
:101EC0000A0000004552524F523A204D50553630CC
:101ED0003530206E6F7420666F756E64210D0A00B8
:101EE00053686F77696E673A2050697463682F5240
:101EF0006F6C6C2028616363656C29202B2059610D
:101F00007720286779726F29207C2054656D702FA7
:101F1000507265732028424D50313830290D0A0D1A
:101F20000A0000000D0A0D0A0D0A0D0A000000004B
:101F30001B5B34410D00000050697463683D000074
:101F400020526F6C6C3D0000205961773D0000000D
:101F5000202020202020200D0A00000041583D00B4
:101F60002041593D0000000020415A3D0000000082
:101F70002047583D000000002047593D0000000068
:101F800020475A3D0000000054656D703D00000080
:101F90004320507265733D00506120202020202096
:101FA00000000000424D50313830206E6F742064C4
:101FB0006574656374656420202020202020202023
:101FC000200000005961775F723D0000206D6F7640
:101FD0006520666F72776172642020202000000007
:101FE000207475726E206C6566742020202020207D
:101FF00020000000207475726E207269676874207A
:08200000202020202000000038
:04000005080000B936
:00000001FF
