:100000000C94C8080C94E5080C94E5080C94E508D9
:100010000C94E5080C94E5080C94E5080C9466092A
:100020000C94E5080C94E5080C94E5080C94E5089C
:100030000C94E5080C94E5080C94E5080C94E5088C
:100040000C94E5080C94E5080C94E5080C94E5087C
:100050000C94E5080C94E5080C94E5080C94E5086C
:100060000C94E5080C94E508000000000000000076
:100070000000000000000000000000000000000080
:100080000000000000000000000000000000000070
:100090000000000000000000000000000000000060
:1000A000000000000000000080C0F0F0707070F0F0
:1000B000F0F0F0F0F0F0F0F0F0F0F0F0F0F0808020
:1000C0000000000000000000000000000000000030
:1000D0000000000000000000000000000000000020
:1000E0000000000000000000000000000000000010
:1000F0000000000000000000000000000000000000
:1001000000000000000000000000000000000000EF
:1001100000000000000000000000000000000000DF
:100120000000000000000000FFFFFFFFFCFCFCFFE0
:10013000FFFFFFFFFFFFFFFFFFFFFFFFFFFFFFFFCF
:1001400000000000000000000000000000000000AF
:10015000000000000000000000000000000000009F
:10016000000000000000000000000000000000008F
:10017000000000000000000000000000000000007F
:1001800000000000000000000000000000000080EF
:10019000000000000000000000000000000000005F
:1001A00000000000008080C0FFFFFFFFFFFFFFFF97
:1001B000FF7F3F3F313131313131310101010101E7
:1001C000000000000000000000000000000000002F
:1001D000000000000000000000000000000000001F
:1001E000000000000000000000000000000000000F
:1001F00000000000000000000000000000000000FF
:10020000000000000000000000000000000000FFEF
:10021000F8F0F0C0C0800000000000C0C0C0F0F0E6
:10022000F0FCFEFEFEFFFFFFFFFFFFFFFFFFFFFFF3
:10023000FF303030F0F0000000000000000000004F
:1002400000000000000000000000000000000000AE
:10025000000000000000000000000000000000009E
:10026000000000000000000000000000000000008E
:10027000000000000000000000000000000000007E
:100280000000000000000000000000000000001F4F
:100290003FFFFFFFFFFFFEFEFEFEFEFFFFFFFFFF33
:1002A000FFFFFFFFFFFFFFFFFFFFFFFFFFFFFF7FDE
:1002B0007F000000000000000008000000000000B7
:1002C000000000000000000000000000000000002E
:1002D000000000000000000000000000000000001E
:1002E000000000000000000000000000000000000E
:1002F00000000000000000000000000000000000FE
:1003000000000000000000000000000000000000ED
:100310000000000103071F1F3F7FFFFFFFFFFFFFDC
:100320007F7F7F7FFFFFFFFFFFFF1F1F070303008C
:1003300000000000000000000000000000000000BD
:1003400000000000000000000000000000000000AD
:10035000000000000000000000000000000000009D
:10036000000000000000000000000000000000008D
:10037000000000000000000000000000000000007D
:10038000000000000000000000000000000000006D
:1003900000000000000000000000000303070F0F32
:1003A0000C0C000000030303FFFF800000000000AE
:1003B000000000000000000000000000000000003D
:1003C000000000000000000000000000000000002D
:1003D000000000000000000000000000000000001D
:1003E000000000000000000000000000000000000D
:1003F00000000000000000000000000000000000FD
:1004000000000000000000000000000000000000EC
:1004100000000000000000000000000000000000DC
:1004200000000000000000000101010100000000C8
:1004300000000000000000000000000000000000BC
:1004400000000000000000000000000000000000AC
:10045000000000000000000000000000000000009C
:10046000000000000000000000000000000000008C
:10047000000000000000000000000000000000007C
:10048000000000000000000000000000000000006C
:10049000000000000000000000000000000000005C
:1004A0000000000000000000008080F0F0F070709C
:1004B000F0F0F0F0F0F0F0F0F0F0F0F0F0F0F0C06C
:1004C00080000000000000000000000000000000AC
:1004D000000000000000000000000000000000001C
:1004E000000000000000000000000000000000000C
:1004F00000000000000000000000000000000000FC
:1005000000000000000000000000000000000000EB
:1005100000000000000000000000000000000000DB
:10052000000000000000000000FFFFFFFFFCFCFCDB
:10053000FFFFFFFFFFFFFFFFFFFFFFFFFFFFFFFFCB
:10054000FF000000000000000000000000000000AC
:10055000000000000000000000000000000000009B
:10056000000000000000000000000000000000008B
:10057000000000000000000000000000000000007B
:10058000000000000000000000000000000000006B
:10059000808000000000000000000000000000005B
:1005A000000000000000808080FFFFFFFFFFFFFFD2
:1005B000FFFF7F3F3F3131313131313101010101E5
:1005C000010000000000000000000000000000002A
:1005D000000000000000000000000000000000001B
:1005E000000000000000000000000000000000000B
:1005F00000000000000000000000000000000000FB
:1006000000000000000000000000000000000000EA
:10061000FFFFF0F0C0C0C0000000000080C0C0F0CC
:10062000F0F0F8FEFEFEFFFFFFFFFFFFFFFFFFFF02
:10063000FFFF383030F0F000000000000000000044
:1006400000000000000000000000000000000000AA
:10065000000000000000000000000000000000009A
:10066000000000000000000000000000000000008A
:10067000000000000000000000000000000000007A
:10068000000000000000000000000000000000006A
:100690001F1FFFFFFFFFFFFEFEFEFEFEFFFFFFFF2F
:1006A000FFFFFFFFFFFFFFFFFFFFFFFFFFFFFFFF5A
:1006B0007F7F00000000000000000000000000003C
:1006C000000000000000000000000000000000002A
:1006D000000000000000000000000000000000001A
:1006E000000000000000000000000000000000000A
:1006F00000000000000000000000000000000000FA
:1007000000000000000000000000000000000000E9
:10071000000000000003031F1F1F7F7FFFFFFFFF7C
:10072000FFFFFFFF7F7F7F7FFFFFFF1F1F07030389
:100730000000000080000000000000000000000039
:1007400000000000000000000000000000000000A9
:100750000000000000000000000000000000000099
:100760000000000000000000000000000000000089
:100770000000000000000000000000000000000079
:100780000000000000000000000000000000000069
:10079000000000000000000000000000FFFF9F0FAD
:1007A0000F03030000000000000303030303030022
:1007B0000000000000000000000000000000000039
:1007C0000000000000000000000000000000000029
:1007D0000000000000000000000000000000000019
:1007E0000000000000000000000000000000000009
:1007F00000000000000000000000000000000000F9
:1008000000000000000000000000000000000000E8
:1008100000000000000000000000000001010101D4
:1008200001000000000000000000000000000000C7
:1008300000000000000000000000000000000000B8
:1008400000000000000000000000000000000000A8
:100850000000000000000000000000000000000098
:100860000000000000000000000000000000000088
:100870000000000000000000000000000000000078
:100880000000000000000000000000000000000068
:100890000000000000000000000000000000000058
:1008A0000000000000000000000000000000000048
:1008B0000000000000000000000000000000000038
:1008C0000000000000000000000000000000000028
:1008D0000000000000000000000000000000000018
:1008E0000000000000000000000000000000000008
:1008F00000000000000000000000000000000000F8
:1009000000000000000000000000000000000000E7
:100910000000000000000000000000FCFCFC0303DD
:10092000030303FCFC0000000000FCFCFC030303C9
:100930000383FCFC00000000000000000000000039
:1009400000000000000000000000000000000000A7
:100950000000000000000000000000000000000097
:100960000000000000000000000000000000000087
:100970000000000000000000000000000000000077
:100980000000000000000000000000000000000067
:100990000000000000000000000000FFFFFF00005A
:1009A0000000FFFFFF8080808080FFFFFF808000CD
:1009B00000FFFFFF0000000000000000000000003A
:1009C0000000000000000000000000000000000027
:1009D0000000000000000000000000000000000017
:1009E0000000000000000000000000000000000007
:1009F00000000000000000000000000000000000F7
:100A000000000000000000000000000000000000E6
:100A1000000000000000000000F0F80F0F0F0000C1
:100A200000000001010101010101010101010100BA
:100A300000010F0FF8F800000000000000000000A7
:100A400000000000000000000000000000000000A6
:100A50000000000000000000000000000000000096
:100A60000000000000000000000000000000000086
:100A70000000000000000000000000000000000076
:100A80000000000000000000000000000000000066
:100A9000000000000000000000FFFF000000000058
:100AA000000000FFFF0000000000000000FFFF004A
:100AB00000000000FFFF0000000000000000000038
:100AC0000000000000000000000000000000000026
:100AD0000000000000000000000000000000000016
:100AE0000000000000000000000000000000000006
:100AF00000000000000000000000000000000000F6
:100B000000000000000000000000000000000000E5
:100B100000000000000000000003030C1C1C6060CB
:100B2000E0E0E0606060606060606060E0E0E0E045
:100B3000E0E09C9C636360606080800000000000D7
:100B400000000000000000000000000000000000A5
:100B50000000000000000000000000000000000095
:100B60000000000000000000000000000000000085
:100B70000000000000000000000000000000000075
:100B80000000000000000000000000000000000065
:100B90000000000000000000000000F0F0F00C0C6D
:100BA000FFFFFF0000F0F0F00000000000FFFF0377
:100BB00003037F7FF0F07070700F0F0000000000E3
:100BC0000000000000000000000000000000000025
:100BD0000000000000000000000000000000000015
:100BE0000000000000000000000000000000000005
:100BF00000000000000000000000000000000000F5
:100C000000000000000000000000000000000000E4
:100C100000000000000000000000003F3F3F3838A7
:100C20003F3F3F38383F3F3F38383838383F3F380C
:100C3000383838383F3F0000000000000000000056
:100C400000000000000000000000000000000000A4
:100C50000000000000000000000000000000000094
:100C600000000000000000000000000000FFFFFF87
:100C7000070303030303FBFBFBFB0303030303FB68
:100C8000FBFBFBF303030303FBFBFBFBFB03030384
:100C90000303FBFBFBFB0303030303FBFB03030354
:100CA000FBFBFBFB0303030303FBFBFBFB03030354
:100CB0000303FBFBFBFBF303030303F3FBFBFBFB64
:100CC0000303030303FBFBFBFB0303030303FBFB24
:100CD000FBFBF303030303F3FBFBFBFB0303030334
:100CE0000307FF00000000000000000000FFFFFFFE
:100CF000001F1F1F1F1EC0C0C0C01F1F1F1F1F00BF
:100D0000000000001F1F1F1F00000000001F1F1F0A
:100D10001F1F0000000000000000001F1F1F1F1EFB
:100D2000000000001F1F1F1F1F000000001F1F1FCB
:100D30001F1F00000000001F1F1F1F0000000000F9
:100D40001F1F1F1F1F000000001F1F1F1F1F00006D
:100D50000000001F1F1F1FC0C0C0C0C03F3F3F3F5B
:100D60001E00FF00000000000000000000FFFFFF69
:100D700000F8F8F8F8F8070707070000000000007F
:100D800000000080C0C0C0C0C0C0C0C0C0C08000E3
:100D90000080C0C0C0C0C0C0C0C0C0C0C0C0C08093
:100DA00000000000000080C0C0C080000000000003
:100DB000000080C0C0C0C0C0C0C0C0C0C0800000B3
:100DC000000080C0C0C0C0C0C0C0C0C0C0C0C0C0E3
:100DD000C00000000000000307070707F8F8F8F854
:100DE000F800FF00000000000000000000FFFFFF0F
:100DF00000E0E0E0E0E01F1F1F1F00000000000017
:100E00007EFEFEFFFFEFC7C7C7C7C7C7C7070700FC
:100E1000000707070707FFFFFFFFFF070707070791
:100E20000000F8F8FEFECF07070707FFFEFEF8F800
:100E30000000FFFFFFFFFF0707070787FFFFFFFE19
:100E40007E000307070707FFFFFFFFFF0F070707E6
:100E5000070000000000001F1F1F1F1FE0E0E0E070
:100E6000E000FF00000000000000000000FFFFFFA6
:100E7000000303030303FCFCFCFC00000000000073
:100E8000E0F0F0F3F3F3F3F3F3F3FFFFFF7F7F0002
:100E9000000000000000FFFFFFFFFF000000000057
:100EA0000000FFFFFFFF1F0F0F0F0FFFFFFFFFFFF0
:100EB0000000FFFFFFFFFF1F0F3F7F7FF3F3F0F006
:100EC000E0000000000000FFFFFFFFFF0000000047
:100ED0000000000000000078FCFCFCFC030303039E
:100EE0000300FF00000000000000000000FFFFFF03
:100EF000001F1F1F1F1FE0E0E0E0000000000000D7
:100F000001010101010101010101010101000000D4
:100F100000000000000001010101010000000000CC
:100F200000000101010100000000000101010101B8
:100F300000000101010101000000000001010101A8
:100F4000010000000000000101010101000000009B
:100F500000000000000000E0E0E0E0E01F1F1F1FB5
:100F60001F00FF00000000000000000000FFFFFF66
:100F7000007C7C7C7C7C838383837C7C00FCFC0CFD
:100F80000C0C0C0CFCFC00007C7C7C7C7C8080804D
:100F900080807C7C7C7C80808080807C7C7C7C7879
:100FA000808080807C7C7C7C7C80808080787C7C65
:100FB0007C7C80808080807C7C7C7C808080808049
:100FC0007C7C7C7C7C80808080787C7C7C7C80804D
:100FD0008080807C7C7C7C83838383837C7C7C7C22
:100FE0007C00FF00000000000000000000FFFFFF89
:100FF000E0E0C0C0C0C0CFDFDFCFC0C0C0CFCFC82F
:10100000C8C8C8C8CFCFC0C0C0C0C0C0C0CFCFCF75
:10101000CFCFC0C0C0C0CFCFCFCFCFC0C0C0C0C067
:10102000CFCFCFCFC0C0C0C0C0CFCFCFCFC0C0C048
:10103000C0C0CFCFCFCFCFC0C0C0C0CFDFDFCFCFFA
:10104000C0C0C0C0C0CFCFCFCFC0C0C0C0C0CFCF46
:10105000CFCFCFC0C0C0C0CFCFCFCFCFC0C0C0C018
:10106000E0F0FF0000000000000000000000005F52
:1010700000000007000700147F147F14242A7F2A31
:1010800012231308646236495522500005030000FC
:10109000001C2241000041221C0014083E081408D4
:1010A000083E0808005030000008080808080060E2
:1010B00060000020100804023E5149453E00427F76
:1010C000400042615149462141454B311814127F7D
:1010D0001027454545393C4A494930017109050306
:1010E0003649494936064949291E0036360000006E
:1010F0005636000008142241001414141414004140
:101100002214080201510906324979413E7E11112B
:10111000117E7F494949363E414141227F4141226A
:101120001C7F494949417F090909013E4149497AE2
:101130007F0808087F00417F41002040413F017F38
:10114000081422417F404040407F0204027F7F0418
:1011500008107F3E4141413E7F090909063E415149
:10116000215E7F09192946464949493101017F011C
:10117000013F4040403F1F2040201F3F4038403F3C
:101180006314081463070870080761514945430058
:1011900011241FBECFEFD8E0DEBFCDBF11E0A0E02D
:1011A000B1E0E0EFF3E202C005900D92A23BB1077F
:1011B000D9F721E0A2EBB1E001C01D92A23CB20739
:1011C000E1F70E94760D0C94F6110C94000080E07B
:1011D00091E08093BE019093BF011092C00086E021
:1011E0008093C50091E89093C4008093C20088E189
:1011F0008093C10008959091C00095FFFCCF80932B
:10120000C6000895CF93DF930F92CDB7DEB78983E1
:101210008A3019F48DE00E94FB0889810E94FB0846
:1012200080E090E00F90DF91CF9108958091C00011
:1012300087FFFCCF8091C60008958091C00087FB96
:10124000882780F90895CF93DF93EC01888181117D
:1012500003C0DF91CF91089521960E94FB08F6CF3D
:10126000EF92FF920F931F93CF93DF9300D00F92D3
:10127000CDB7DEB78C011A821B82615071097B01E8
:101280000E94160989830E94FB0899819A3071F4A3
:10129000F80110828A819B810F900F900F90DF914F
:1012A000CF911F910F91FF90EF900895F981FD303C
:1012B00079F3F801898181938F01EA81FB8131966D
:1012C000EA83FB83EE16FF06D9F6E2CF1F921FB624
:1012D0001F9211248F939F938091B201811551F039
:1012E00085B194E0892785B99F918F911F901FBE8A
:1012F0001F9018952A98F8CF1092B2012A98089555
:1013000081E08093B2010895229A2A9882E0809326
:10131000B00091E09093B10091ED9093B300809371
:1013200070000C947C098AB1837E8AB92198299A2D
:101330003A98429A8BB18C618BB9EFE6F0E08081EC
:101340008F7D8083E1E880818F7B8083089583E4B3
:1013500080937C0087E880937A000895877080648A
:1013600080937C0080917A00806480937A008091E1
:101370007A0086FDFCCF80917800909179000895E5
:10138000411111C0683321E0720780F0693C72405E
:1013900080F4883321E0920778F0893C924078F419
:1013A0008AE891E008958BE291E008958DE291E062
:1013B000089580EB91E008958FE291E0089581E334
:1013C00091E00895FC018081833559F0863461F005
:1013D000823469F08C3471F0823579F08AE891E0DA
:1013E000089583E391E0089588E391E0089580E40F
:1013F00091E0089585E491E008958AE491E00895EC
:10140000EFE9FFE03197F1F700C000000197C1F765
:101410000895CF93DF9300D0CDB7DEB789839A8349
:101420008091B401811105C00E948F0C81E08093EE
:10143000B4018091B501883028F00E948F0C109281
:10144000B50180E060E00E94A70C89819A810E942A
:10145000D60C8091B5018F5F8093B5010F900F90EE
:10146000DF91CF9108950F931F93CF93DF93CDB763
:10147000DEB764970FB6F894DEBF0FBECDBF909174
:101480001401961335C0909113019F5F909313013F
:10149000933010F0609312019091110194132BC0BE
:1014A000909110019F5F90931001953010F0409340
:1014B0000F019091BB01981302C08093BA019091E3
:1014C000B901921302C02093B8018093BB016093CD
:1014D0001401409311012093B901809112018111EF
:1014E0000DC080910E018115D9F10E947C0938C090
:1014F00010921301D1CF10921001DBCF80910E0119
:1015000081112EC081E08093B2018091B30190E0FF
:10151000019666E070E00E94830E8093B301880F0D
:10152000991FFC01E35EFE4F81818F9380818F9331
:1015300080E591E09F938F938E010F5F1F4F1F9364
:101540000F930E943A0FC8010E94090A0F900F9052
:101550000F900F900F900F9080911201811509F25A
:101560008091BA01811107C08091B7018115D1F036
:101570000E947C0917C08091B701811113C060914E
:10158000BE017091BF0184E590E00E94CD0E81E024
:101590008093B2018CE591E00E94090A8091BA0122
:1015A000811511F38091B801811509F43FC0809134
:1015B000B60181113BC081E08093B2018091B301FB
:1015C000833009F459C068F46091BE017091BF0185
:1015D000813009F44EC0823009F046C089E590E0C0
:1015E00045C0843009F44FC0853009F453C0E09100
:1015F000B301F0E0EE0FFF1FE35EFE4F81818F939A
:1016000080818F9388E691E09F938F938E010F5F87
:101610001F4F1F930F930E943A0FC8010E94090A9F
:101620000F900F900F900F900F900F901091B801A6
:10163000111105C08091B60181110E947C09809131
:10164000BA018093B7018091120180930E0110932B
:10165000B60164960FB6F894DEBF0FBECDBFDF9122
:10166000CF911F910F91089581E490E00E94CD0EDB
:10167000BECF88E590E0FACF6091BE017091BF01C6
:101680008AE590E0F3CF6091BE017091BF018EE4D6
:1016900090E0ECCF6091BE017091BF018DE490E0CD
:1016A000E5CF5C9A85ED8A95F1F700005C98089586
:1016B000CF93C82F87FF1FC0289AC6FF1EC05F9A0E
:1016C000C5FF1DC05E9AC4FF1CC05D9A0E94510BED
:1016D00085ED8A95F1F70000C3FF15C0289AC2FF77
:1016E00014C05F9AC1FF13C05E9AC0FF12C05D9A1A
:1016F000CF910C94510B2898E0CF5F98E1CF5E9882
:10170000E2CF5D98E3CF2898EACF5F98EBCF5E9861
:10171000ECCF5D98EDCF5B9A0E94580B8FE39FE171
:101720000197F1F700C0000008955B980E94580BE4
:101730008FE19EE40197F1F700C0000008955C98E6
:101740002FEF89EF90E0215080409040E1F700C0FA
:10175000000083E30E94950B83E30E94950B82E3D4
:101760000E94950B88E20E94950B8CE00E94950BDD
:1017700081E00E94950B2FEF89EF90E0215080408F
:101780009040E1F700C0000008950F931F93CF939E
:10179000DF9300D000D0CDB7DEB78C839A83498326
:1017A00080EC623009F080E80E94950B8FE19EE4A6
:1017B0000197F1F700C000000C811A811A821B8288
:1017C000F801808181110CC0F981F1111BC00F90CB
:1017D0000F900F900F90DF91CF911F910F9108956F
:1017E0000F5F1F4F0E948B0BEA81FB813196EA83CA
:1017F000FB83E6CF80E20E948B0B8A819B8101965E
:101800008A839B83EA81FB817097A4F3E0CFCF9317
:10181000DF930F92CDB7DEB789830E94290D88E749
:101820000E944E0D80E00E944E0D89810E944E0D57
:101830000F90DF91CF910C943E0DCF93DF930F92D9
:10184000CDB7DEB789830E94290D88E70E944E0D2F
:1018500080E40E944E0D89810E944E0D0F90DF9111
:10186000CF910C943E0D0E94240D87EA91E60197DA
:10187000F1F700C000008EEA0E94070C80E20E948F
:10188000070C80E00E94070C80EB0E94070C88EC9C
:101890000E94070C80E00E94070C80E10E94070C68
:1018A00080E40E94070C81E80E94070C8FEF0E94E1
:1018B000070C81EA0E94070C86EA0E94070C88EA5E
:1018C0000E94070C8FE30E94070C84EA0E94070C19
:1018D00083ED0E94070C80E00E94070C85ED0E94BA
:1018E000070C80EF0E94070C89ED0E94070C82E232
:1018F0000E94070C8AED0E94070C82E10E94070CEF
:101900008BED0E94070C80E20E94070C8DE80E947C
:10191000070C84E10E94070C8FEA0C94070CCF930C
:10192000DF93C0EB8C2F0E94070C80E00E94070C15
:1019300080E10E94070CD0E880E00E941D0CD1508D
:10194000D9F7CF5FC83B71F7DF91CF910895CF935F
:10195000C62FCC0FC60FCC0F80550E94070C8C2FC2
:101960008E700E94070C8C2F82958F70805FCF91B4
:101970000C94070C1F93CF93DF9380528B3308F0A6
:1019800080E095E0899FE0011124C859DF4E15E001
:10199000FE0184910E941D0C115021961111F8CF67
:1019A00080E0DF91CF911F910C941D0CCF93DF93BA
:1019B000EC018881811103C0DF91CF9108952196B8
:1019C0000E94BA0CF6CFFF920F931F93CF93DF9331
:1019D00000D000D00F92CDB7DEB789839A836B8396
:1019E000F42E1C82EC81FB81EF1758F00F900F90C2
:1019F0000F900F900F90DF91CF911F910F91FF905B
:101A000008958C8180550E94070C80E00E94070C8D
:101A100080E10E94070C09811A818C818F9D000D45
:101A2000111D11241D828D818F1104C09C819F5F27
:101A30009C83D8CFF80184910E941D0CFD81FF5F2B
:101A4000FD830F5F1F4FEFCF3D9845983C9844981A
:101A500008953C98449800C000C000003D98459807
:101A600000C000C000003C9A449800C000C00000C4
:101A70003D9A459800C000C0000008953C9A4498E3
:101A800000C000C000003D98459800C000C00000A4
:101A90003C98449800C000C00000089598E087FF7B
:101AA00023C03C984498880F00C000C000003D98B7
:101AB000459800C000C000003D9A459800C000C095
:101AC0000000915061F73C9844983D98459800C0BB
:101AD00000C0000086B13D9A459800C000C00000DB
:101AE00082958395817008953C9ADCCFCDB7DEB79F
:101AF000A9970FB6F894DEBF0FBECDBF0E94930921
:101B00000E94A7090E94E7080E9484090E94240DF0
:101B10000E94330C84EF91E00E94000A0E948F0C17
:101B200084E690E00E94000A60E080E00E94A70C3A
:101B30004B9B0CC040E868E088E690E00E94E30C14
:101B400084E690E00E94000A4B99BBC00E948F0C73
:101B500040E868E088E69CE00E94E30C7894B12CB1
:101B600080E092E018A699A7FC011EA2FFA3512CC9
:101B7000612C712CA12C44244A948AE8882E81E09F
:101B8000982E7E01F5E1EF0EF11C6E012FEFC21AC7
:101B9000D20A252D462D672D8A2D0E94330A4B2D02
:101BA00068A579A58EA19FA10E94C0098C01881605
:101BB000990641F1FC018081811521F16091BE01FE
:101BC0007091BF01982F990F990B0E94CD0EC801FB
:101BD0000E94E2099F938F9383E791E09F938F93F5
:101BE000FF92EF920E943A0F41E062E0C7010E942B
:101BF000C50BC7010E94090A0F900F900F900F901C
:101C00000F900F9083E00E94AE09943008F464C0F6
:101C10008FEF93E09C012E533140A4E6B0E00E9488
:101C2000740E21EC32E040E050E00E94970E922EBC
:101C3000B32E4216F9F03F932F938EE791E09F93D6
:101C40008F93DF92CF920E943A0FC6010E940E0F2F
:101C5000BF929F9281E891E09F938F93DF92CF9202
:101C60000E943A0FC6010E94090A0FB6F894DEBF1F
:101C70000FBECDBF84E690E00E94000AAA244B99D3
:101C8000A39488248394A82477244A99739478246D
:101C900066244C99639468245524199953945824C4
:101CA00080E00E94AE098EA39FA381E00E94AE094E
:101CB00088A799A7BB243299B394B824492C48012A
:101CC00068CF40E868E088E694E00E94E30C84E690
:101CD00090E00E94000A2CCF8E3321E0920708F09A
:101CE00099CF8EE391E096CFA29FB001B39FC00140
:101CF000A39F700D811D1124911DB29F700D811D38
:101D00001124911D089597FB072E16F4009407D017
:101D100077FD09D00E94B90E07FC05D03EF49095DE
:101D200081959F4F0895709561957F4F0895A1E229
:101D30001A2EAA1BBB1BFD010DC0AA1FBB1FEE1F45
:101D4000FF1FA217B307E407F50720F0A21BB30B90
:101D5000E40BF50B661F771F881F991F1A9469F70C
:101D600060957095809590959B01AC01BD01CF0168
:101D70000895AA1BBB1B51E107C0AA1FBB1FA617D2
:101D8000B70710F0A61BB70B881F991F5A95A9F724
:101D900080959095BC01CD010895A3E0B0E0E3EDFE
:101DA000FEE00C94CE11182F99836A837B83DB01AC
:101DB00013968C9181FD09C01FEFBFEFB983812F6E
:101DC00099812396E3E00C94EA1182FF1BC0EA811B
:101DD000FB8126813781848195812817390754F446
:101DE0000190F081E02DCF010196AA81BB818D93F6
:101DF0009D931083EA81FB8186819781019686837A
:101E00009783DDCFAA81BB811896ED91FD911A973A
:101E1000BD01812F0995892B69F3CECF0F931F93B5
:101E2000CF93DF93E091BE01F091BF012381EC01DC
:101E300000E010E021FD0EC00FEF1FEFC801DF91A1
:101E4000CF911F910F91089521960995892B11F03B
:101E50000FEF1FEF88816091BE017091BF01DB0120
:101E60001896ED91FD918111EFCF8AE00995892BAC
:101E700029F3E2CFAEE0B0E0E0E4FFE00C94CF1154
:101E800086E08C832B893C8929833A838FEF9FE7F7
:101E90008D839E83AE01495E5F4F6D897E89CE0141
:101EA00001960E945E0FEF81F8852B893C89E20F35
:101EB000F31F10822E96E2E00C94EB11ACE0B0E040
:101EC000E4E6FFE00C94C2115C016B017A01FC01B5
:101ED00016821782838181FFD3C12AE0522EF50139
:101EE0002381F60123FD859123FF81916F018115E7
:101EF00009F42CC1853239F423FD959123FF91918A
:101F00006F01953229F4B50190E00E94CD0EE7CF24
:101F100030E0712C00E010E0103210F59B32C9F077
:101F200050F49032B9F09332C9F09E3261F516FD4B
:101F30000DC1106405C09D3279F0903399F41160A1
:101F4000F60123FD959123FF91916F019111E4CF4B
:101F500023C012601460F4CF1860F2CF1061F0CF8C
:101F600017FD1AC080ED890F8A30F8F616FF05C0FC
:101F7000759C800D1124782EE3CF059D800D1124D2
:101F8000082F1062DDCF9C3611F41068D9CF9C3435
:101F900009F440C09836A1F2892F8F7D8554833093
:101FA000D8F1933609F45FC0933709F46AC09335CA
:101FB00009F476C0943619F0993609F0A2C0F701F9
:101FC00017FF98C061917191819191917F011F7666
:101FD00097FF03C00E94B71110682AE030E04E015D
:101FE0004FEF841A940AA4010E945911682E6818B0
:101FF00016FFD2C0812F8E7F671408F0CCC014FF6B
:102000001DC112FD11C11E7E972C812F867809F407
:10201000CEC00FC131E094CF311509F1F8E0EF0ED9
:10202000F11C8FE3898391E0692E712C4E018FEFB3
:10203000881A980A1F7713FD04C06016710408F40B
:102040003FC06114710409F042C0011509F447CF83
:10205000B50180E290E00E94CD0E0150F6CF44E041
:10206000E40EF11CDECFF70180818983F2E0EF0EF0
:10207000F11C81E0682E712C4E014FEF841A940AF6
:10208000D9CFF701819091907F01672D70E016FD07
:1020900002C06FEF7FEFC4010E944E113C01CACF16
:1020A000F701819091907F01672D70E016FD02C0CD
:1020B0006FEF7FEFC4010E9443113C011068BBCF5A
:1020C000B50180E290E00E94CD0E0150B6CFF40140
:1020D00017FD859117FF81914F01B50190E00E9496
:1020E000CD0E81E0011101C080E0081BF1E06F1A04
:1020F0007108A7CF61917191872F880F880B982F56
:1021000065CF9537C9F41F7E1C872AE030E0FC8537
:10211000F7FF3BC0F70161917191819191917F012E
:102120004E014FEF841A940AA4010E945911682E9F
:1021300068181C851F775CCF812F897F8C8790372B
:1021400099F058F49835B9F09F36E1F0F5018681A1
:1021500097812C96EFE00C94DE119837B9F714FDB7
:1021600006C020E130E0D3CF9C8590619C87EC8550
:10217000E460EC87F6CF14FF02C016601C8720E1F4
:1021800032E0C5CF28E030E0C2CFF7016191719114
:1021900080E090E0C4CF182F962C14FF36CFFE01BC
:1021A000E60DF11D8081803309F041C0197E13FDD9
:1021B0000EC010FF4FC0762C901618F4700E7918D0
:1021C000902E802F8919091508F480E0980E90163A
:1021D00008F042C0091914FF41C0B50180E390E046
:1021E0000E94CD0E12FF09C088E590E011FD02C0EB
:1021F00088E790E0B5010E94CD0E6714D0F14E0142
:102200008FEF881A980A6A94FE013296E60DF11D46
:102210003F01F30182913F01B50190E00E94CD0E94
:1022200068147904B1F711CF972C182FB8CF12FD8D
:1022300002C09394BCCF93949394B9CF972C182F4A
:10224000E4CEB50180E290E00E94CD0E839480162A
:10225000C0F3B7CF892CFBCF00E0BDCF812F8678AC
:1022600061F280E211FD8BE217FD8DE2B50190E095
:10227000C2CFB50180E390E00E94CD0E7A94BDCF2D
:102280008FEF9FEF66CFFC01059061507040011009
:10229000D8F7809590958E0F9F1F0895FC0161508F
:1022A000704001900110D8F7809590958E0F9F1F78
:1022B0000895FA01AA27283051F1203181F1E894DC
:1022C0006F936E7F6E5F7F4F8F4F9F4FAF4FB1E029
:1022D0003ED0B4E03CD0670F781F891F9A1FA11D24
:1022E000680F791F8A1F911DA11D6A0F711D811D25
:1022F000911DA11D20D009F468943F912AE0269FEA
:1023000011243019305D3193DEF6CF010895462F48
:102310004770405D4193B3E00FD0C9F7F6CF462F29
:102320004F70405D4A3318F0495D31FD4052419392
:1023300002D0A9F7EACFB4E0A6959795879577954F
:102340006795BA95C9F700976105710508959B01D6
:10235000AC010A2E06945795479537952795BA955F
:10236000C9F7620F731F841F951FA01D08959095D4
:102370008095709561957F4F8F4F9F4F08952F9255
:102380003F924F925F926F927F928F929F92AF9205
:10239000BF92CF92DF92EF92FF920F931F93CF9352
:1023A000DF93CDB7DEB7CA1BDB0B0FB6F894DEBFE9
:1023B0000FBECDBF09942A88398848885F846E840F
:1023C0007D848C849B84AA84B984C884DF80EE8059
:1023D000FD800C811B81AA81B981CE0FD11D0FB662
:1023E000F894DEBF0FBECDBFED010895F894FFCF86
:1023F00000000002000000000209000000000101CE
:1024000003010103016808680C680468008B0190EF
:102410000196019C01A201AB01030053005200464A
:1024200000420053544F5000464F5257415244000F
:102430004241434B004C45465400524947485400E2
:102440003E3E204D4F44453A202573003E3E2054E9
:1024500055524E20313830003E3E2053454C3A20F4
:102460002573003E3E204A4F593A202573002575BA
:1024700000504F543A2025337525004155544F00E4
:102480005041544831005041544832005041544862
:1024900033004E45572050415448004D414E554160
:0224A0004C00EE
:00000001FF
